{
  "contractName": "Banking",
  "abi": [
    {
      "inputs": [
        {
          "internalType": "address payable",
          "name": "_favored",
          "type": "address"
        },
        {
          "internalType": "uint256",
          "name": "_withdrawDate",
          "type": "uint256"
        }
      ],
      "stateMutability": "payable",
      "type": "constructor"
    },
    {
      "inputs": [],
      "name": "favored",
      "outputs": [
        {
          "internalType": "address payable",
          "name": "",
          "type": "address"
        }
      ],
      "stateMutability": "view",
      "type": "function"
    },
    {
      "inputs": [],
      "name": "withdrawDate",
      "outputs": [
        {
          "internalType": "uint256",
          "name": "",
          "type": "uint256"
        }
      ],
      "stateMutability": "view",
      "type": "function"
    },
    {
      "inputs": [],
      "name": "Withdraw",
      "outputs": [],
      "stateMutability": "nonpayable",
      "type": "function"
    }
  ],
  "bytecode": "0x608060405260405161035b38038061035b83398181016040528101906100259190610118565b42811161003157600080fd5b816000806101000a81548173ffffffffffffffffffffffffffffffffffffffff021916908373ffffffffffffffffffffffffffffffffffffffff160217905550806001819055505050610158565b600080fd5b600073ffffffffffffffffffffffffffffffffffffffff82169050919050565b60006100af82610084565b9050919050565b6100bf816100a4565b81146100ca57600080fd5b50565b6000815190506100dc816100b6565b92915050565b6000819050919050565b6100f5816100e2565b811461010057600080fd5b50565b600081519050610112816100ec565b92915050565b6000806040838503121561012f5761012e61007f565b5b600061013d858286016100cd565b925050602061014e85828601610103565b9150509250929050565b6101f4806101676000396000f3fe608060405234801561001057600080fd5b50600436106100415760003560e01c8063039491df1461004657806357ea89b61461006457806359c390941461006e575b600080fd5b61004e61008c565b60405161005b919061016f565b60405180910390f35b61006c6100b0565b005b610076610128565b60405161008391906101a3565b60405180910390f35b60008054906101000a900473ffffffffffffffffffffffffffffffffffffffff1681565b6001544210156100bf57600080fd5b60008054906101000a900473ffffffffffffffffffffffffffffffffffffffff1673ffffffffffffffffffffffffffffffffffffffff166108fc479081150290604051600060405180830381858888f19350505050158015610125573d6000803e3d6000fd5b50565b60015481565b600073ffffffffffffffffffffffffffffffffffffffff82169050919050565b60006101598261012e565b9050919050565b6101698161014e565b82525050565b60006020820190506101846000830184610160565b92915050565b6000819050919050565b61019d8161018a565b82525050565b60006020820190506101b86000830184610194565b9291505056fea264697066735822122084f0852e08ac601e94b328c686a216b17f1a238fc63386b18aefe736943664f364736f6c634300080d0033",
  "immutableReferences": {},
  "source": "// SPDX-License-Identifier: MIT\n\npragma solidity ^0.8.1;\n\n//This contract uses a \"Timelock\" function, please note that if you actually use it, you CANNOT withdraw funds until the set date!!!!\n\ncontract Banking {\n\n    address payable public favored; //Address that is going to receive the ETH.\n    uint256 public withdrawDate; //Time - UnixTimeStamp\n\n    constructor(address payable _favored, uint256 _withdrawDate) payable {\n        require(_withdrawDate > block.timestamp);\n        favored = _favored;\n        withdrawDate = _withdrawDate;\n    }\n\n    function Withdraw() public {\n        require(block.timestamp >= withdrawDate);\n        payable (favored).transfer(address(this).balance);\n    }\n}",
  "sourcePath": "/home/atlas/programming/solidity/eth-savings/contracts/ETHBanking.sol",
  "compiler": {
    "name": "solc",
    "version": "0.8.13+commit.abaa5c0e.Emscripten.clang"
  },
  "schemaVersion": "3.4.7",
  "updatedAt": "2022-04-20T01:40:11.452Z",
  "devdoc": {
    "kind": "dev",
    "methods": {},
    "version": 1
  },
  "userdoc": {
    "kind": "user",
    "methods": {},
    "version": 1
  }
}