{
  "contractName": "Banking",
  "abi": [
    {
      "inputs": [
        {
          "internalType": "address payable",
          "name": "_favored",
          "type": "address"
        },
        {
          "internalType": "uint256",
          "name": "_withdrawDate",
          "type": "uint256"
        }
      ],
      "payable": true,
      "stateMutability": "payable",
      "type": "constructor"
    },
    {
      "constant": false,
      "inputs": [],
      "name": "Withdraw",
      "outputs": [],
      "payable": false,
      "stateMutability": "nonpayable",
      "type": "function"
    }
  ],
  "bytecode": "0x60806040526040516101853803806101858339818101604052604081101561002657600080fd5b81019080805190602001909291908051906020019092919050505042811161004d57600080fd5b816000806101000a81548173ffffffffffffffffffffffffffffffffffffffff021916908373ffffffffffffffffffffffffffffffffffffffff16021790555080600181905550505060e1806100a46000396000f3fe6080604052348015600f57600080fd5b506004361060285760003560e01c806357ea89b614602d575b600080fd5b60336035565b005b600154421015604357600080fd5b6000809054906101000a900473ffffffffffffffffffffffffffffffffffffffff1673ffffffffffffffffffffffffffffffffffffffff166108fc479081150290604051600060405180830381858888f1935050505015801560a9573d6000803e3d6000fd5b5056fea265627a7a72315820a782579b056820499d4b66ec713e81cf9ed542cc7d84ea6301fca11127ad1a1264736f6c63430005110032",
  "source": "// SPDX-License-Identifier: MIT\n\npragma solidity ^0.5.1;\n\n//This contract uses a \"Timelock\" function, please note that if you actually use it, you CANNOT withdraw funds until the set date!!!!\n\ncontract Banking {\n\n    address payable favored; //Address that is going to receive the ETH.\n    uint256 withdrawDate; //Time - UnixTimeStamp\n\n    constructor(address payable _favored, uint256 _withdrawDate) public payable {\n        require(_withdrawDate > block.timestamp);\n        favored = _favored;\n        withdrawDate = _withdrawDate;\n    }\n\n    function Withdraw() public {\n        require(block.timestamp >= withdrawDate);\n        address (favored).transfer(address(this).balance);\n    }\n}",
  "sourcePath": "/home/atlas/programming/solidity/eth-savings/contracts/ETHBanking.sol",
  "compiler": {
    "name": "solc",
    "version": "0.5.17+commit.d19bba13.Emscripten.clang"
  },
  "schemaVersion": "3.4.7",
  "updatedAt": "2022-04-20T00:35:17.263Z",
  "devdoc": {
    "methods": {}
  },
  "userdoc": {
    "methods": {}
  }
}